:100000000C94E4000C940C010C940C010C940C0165
:100010000C940C010C940C010C940C010C940C012C
:100020000C940C010C940C010C940C010C940C011C
:100030000C940C010C944C090C940C010C940C01C4
:100040000C940A0A0C940C010C9429020C940C01D7
:100050000C940C010C940C010C940C010C940C01EC
:100060000C940C010C940C0178028602BD02C502AE
:10007000CD02E0029C0200000000240027002A00BC
:10008000003E7C42F8C684BA95ABE9D76D53112F78
:100090004F71330DB789CBF5DAE4A698221C5E6068
:1000A0009EA0E2DC66581A240B357749F3CD8FB158
:1000B000D1EFAD932917556B447A3806BC82C0FE48
:1000C0005967251BA19FDDE3CCF2B08E340A487638
:1000D00016286A54EED092AC83BDFFC17B45073928
:1000E000C7F9BB853F01437D526C2E10AA94D6E818
:1000F00088B6F4CA704E0C321D23615FE5DB99A708
:10010000B28CCEF04A74360827195B65DFE1A39DF7
:10011000FDC381BF053B79476856142A90AEECD2E7
:100120002C12506ED4EAA896B987C5FB417F3D03D7
:10013000635D1F219BA5E7D9F6C88AB40E30724CC7
:10014000EBD597A9132D6F517E40023C86B8FAC4B7
:10015000A49AD8E65C62201E310F4D73C9F7B58BA7
:10016000754B09378DB3F1CFE0DE9CA21826645A97
:100170003A044678C2FCBE80AF91D3ED57692B1587
:1001800000000000250028002B00040404040404DF
:100190000404020202020202030303030303010236
:1001A0000408102040800102040810200102040805
:1001B00010200000000800020100000304070000F6
:1001C000000000000000540A11241FBECFEFD8E049
:1001D000DEBFCDBF11E0A0E0B1E0E8E2F2E202C094
:1001E00005900D92A237B107D9F724E0A2E7B1E05C
:1001F00001C01D92A53AB207E1F710E0C4EED0E0CD
:1002000004C02197FE010E94FE10C33ED107C9F72A
:100210000E94810A0C9412110C940000089580E051
:1002200090E00895DC018D919C91119781309105AA
:1002300029F4E0913A02F0913B0216C08230910518
:1002400069F4E0913802F09139023097A1F01296EA
:100250000D90BC91A02D8D919C910CC0039759F4E9
:10026000E0913602F0913702309729F012968D9185
:100270009C911397099408950895FC01428153813C
:10028000608171818DE891E00C94FA074F925F9242
:100290006F927F929F92AF92BF92CF92DF92EF9236
:1002A000FF920F931F93CF93DF93CDB7DEB7629783
:1002B0000FB6F894DEBF0FBECDBF8E010F5F1F4F8C
:1002C0008CE0F80111928A95E9F780919A04909157
:1002D0009B049A83898381E090E09E838D8380E0F4
:1002E00091E09C878B870E944F07892B71F4809146
:1002F00088019091890101969093890180938801EA
:10030000C29708F46AC0C80162C0009198041091B5
:100310009904F801E284F38485E090E0938382837A
:100320000E944F079C011816190614F421E030E0D2
:10033000F7012083690146E08AE0A82EB12C81E014
:10034000C81AD10880F180917A0290917B02609165
:1003500078027091790268177907D1F0489FD0012F
:10036000499FB00D1124A45CBD4F9C9012964D90F6
:100370005D906D907C9015974F86588A698A7A8A2D
:100380000196B5010E94EA1090937B0280937A0255
:1003900091828F85828388898383898984838A89EE
:1003A00085833596CCCF45E0429FC001439F900D99
:1003B000112401968E0D9F1DF80122853385821B25
:1003C000930B9583848380919804909199040E9463
:1003D0008F08109289011092880162960FB6F894E6
:1003E000DEBF0FBECDBFDF91CF911F910F91FF9068
:1003F000EF90DF90CF90BF90AF909F907F906F90E5
:100400005F904F900895FF920F931F93CF93DF93C8
:1004100000D0CDB7DEB78C01F62E81E00E94240813
:100420001A82198289819A818436910534F48981EE
:100430009A8101969A838983F5CF6F2DC8010E9416
:10044000DE060F900F90DF91CF911F910F91FF90DB
:1004500008951F920F920FB60F921124AF92BF9280
:10046000CF92DF92EF92FF920F931F932F933F93C0
:100470004F935F936F937F938F939F93AF93BF93AC
:10048000EF93FF93CF93DF93CDB7DEB72A97DEBF0D
:10049000CDBFE0919D01F0919E018081E091A3018B
:1004A000F091A401982F947082FD1BC48081A091CB
:1004B0009604B091970420919404309195042150B2
:1004C00031092430310540F418964D915C9119970B
:1004D000FA01E20FF31F8083E0919404F0919504F8
:1004E000E730F10508F0D2C3EC5CFF4F0C94FE102E
:1004F000873A09F0CBC317961C921E921697159651
:100500001C921E92149781E090E011C0282F30E0D9
:10051000882349F080919A0490919B048217930755
:1005200011F0892B29F52D933C9382E090E0909374
:10053000950480939404AAC314962D913C91159729
:100540002C5F3F4F91F018960D90BC91A02D2A0F73
:100550003B1FEFEF9D91E927F0E0E058FF4FE4915A
:10056000A217B307B8F39E2F9095891709F44DC0D1
:10057000109295041092940489C390E013969C9372
:100580008E93129783E090E0D2CF90E015969C93E3
:100590008E93149784E090E0CACF14962D913C91ED
:1005A0001597A901582BCA0115965C934E93149781
:1005B000892B19F085E090E0BACF86E090E0B7CFC4
:1005C0001A964D915C911B9716962D913C91179719
:1005D000B9016F5F7F4F17967C936E931697FA0160
:1005E000E20FF31F808316962D913C911797149676
:1005F0008D919C9115972817390709F047C3809171
:10060000940490919504019692CF009196041091D4
:100610009704D8011A96ED91FC911B97C080D12CBC
:1006200012968D919C911397892BE9F4C114D104F2
:10063000D1F4109279021092780210927B021092FB
:100640007A028FEF9FEF0E94730940E050E065E06F
:1006500070E080919004909191040E94E3071092C1
:1006600093041092920480919204909193040097C5
:1006700009F08EC0F801028113810115110509F0FE
:10068000FEC2F2E0CF16D10409F0F9C20E94500E6A
:100690009C018FEF9FE7B8010E94D6106F5F7F4FDC
:1006A000C9010E94D610262F972F60937401709372
:1006B00075011092760185E08093770110927801A0
:1006C0001092790180937A0181E080937B01862FDB
:1006D00068ED7EE10E94D610E8E6F4E0BF010E94DA
:1006E000D6106E9FC0016F9F900D7E9F900D1124BC
:1006F00044E751E05093310240933002A0919804B6
:10070000B09199041A96ED91FC911B9741E050E04D
:1007100013965C934E931297208320917501218349
:100720002091760122832091770123832091790102
:10073000248320917A01258320917B01268337969B
:100740001A962D913C911B97E21BF30B1596FC9387
:10075000EE9314978230910538F0880F991F880F17
:10076000991F05970197F1F710929B0410929A0434
:1007700080919804909199040E948F08809192042E
:10078000909193040196909393048093920477C27E
:100790008130910509F060C0D80112968D919C912D
:1007A0001397019709F046C0BE016F5F7F4FC801E4
:1007B0000E946507E0913002F09131022081318181
:1007C00089819A812817390719F5AE014D5F5F4F6E
:1007D00060E070E080919004909191040E94E307A2
:1007E0008D819E8190939B0480939A0480919204C2
:1007F00090919304019690939304809392041092A5
:1008000081011092800110927F0110927E0137C207
:1008100080918001909181010196833091052CF4A3
:1008200090938101809380012AC2109281011092DD
:100830008001CEC080917E0190917F010196883C1D
:1008400091052CF490937F0180937E0118C2109241
:100850007F0110927E01BCC08230910509F0BDC0BD
:10086000F801828193818330910509F0A0C0028450
:10087000F385E02D208121118EC0C0909804D09086
:100880009904D6011A960D911C911B9713969C936F
:100890008E93129720912A02F8012193CF01E090C4
:1008A0002A02F12C60912B0270912C02A7010E9468
:1008B0000911FFEFEF1AFF0A0E0D1F1D20912D02E7
:1008C000D8012D93CD0140912D0250E060912E0270
:1008D00070912F020E94091180912D0290E00196E3
:1008E0007C01BFEFEB1AFB0AE00EF11EF801E80FE6
:1008F000F91F809134028083A12CB12C80913402A5
:1009000090913502A816B906D0F5C501880F991F38
:10091000E0913202F0913302E80FF91F008111815A
:10092000F8012681D7012D93CD01468150E0B80111
:10093000695F7F4F0E940911D8011696EC911697B6
:10094000F0E03196EE0DFF1D96968C919697808380
:1009500097968C919797818398968C91989782839C
:1009600099968C9183837F01B5E0EB0EF11CD80141
:100970009A968C918483BFEFAB1ABB0ABFCFF60166
:1009800082859385E81AF90AF582E48280919804B9
:100990009091990472C1213009F071C19093930430
:1009A0008093920410927D0110927C0168C1809125
:1009B0007C0190917D010196883C91052CF49093E7
:1009C0007D0180937C015BC110927D0110927C01BE
:1009D000109293041092920452C1039709F04FC1F0
:1009E000D8011296ED90FC901397E114F10409F0F0
:1009F00084C0CA94CD2809F042C140919A04509114
:100A00009B0428EE33E0429FC001439F900D529F0C
:100A1000900D1124092E000CAA0BBB0B63E0880F6C
:100A2000991FAA1FBB1F6A95D1F70097E1E0AE0797
:100A3000B10520F421E020938C0142C00097F8E03A
:100A4000AF07B10558F422E020938C0153E0B6952E
:100A5000A795979587955A95D1F732C0009720E4CE
:100A6000A207B10558F423E020938C0146E0B69527
:100A7000A795979587954A95D1F722C00097A1052C
:100A800041E0B40740F424E020938C01892F9A2F91
:100A9000AB2FBB2715C00097A10554E0B50758F44C
:100AA00025E020938C012AE0B695A7959795879528
:100AB0002A95D1F705C085E080938C018FEF9FEFD9
:100AC00090938B0180938A0180918A0190918B0190
:100AD000909387008093860080918C018061809341
:100AE0008100109281001092850010928400809104
:100AF0008C01806180938100C2C082E0E816F1041D
:100B0000C9F4BE01675F7F4FC8010E9465078985F0
:100B10009A85892B09F0B3C0FA82E982AE014F5F52
:100B20005F4F64E070E080919004909191040E9486
:100B3000E307FFCFA4E0EA16F10409F076C0809144
:100B4000720190917301892BC1F48FEF9FEF909305
:100B500021048093200490933C0480933B04909361
:100B6000570480935604909372048093710481E03B
:100B700090E09093730180937201E0E2F4E080E0F2
:100B800090E0208131812F3F3F4F61F42BE1289F7E
:100B9000F001299FF00D1124E05EFB4F11821082BD
:100BA0007F0107C001967B968430910551F7E12CB7
:100BB000F12CB701C8010E946507E8E6F3E0209137
:100BC00066033091670380E090E028173907C1F091
:100BD00060817181BE96D70112964D915C911397F9
:100BE0006417750759F42EE2289FF001299FF00D34
:100BF0001124E859FC4FF5A6E4A602C00196E5CF02
:100C0000A70161E070E080919004909191040E94AE
:100C1000E307809198049091990424E030E0FC016E
:100C2000338322831582148228C0F6E0EF16F10484
:100C300031F5BE01675F7F4FC8010E946507898556
:100C400090E00E9473099A838983AE014F5F5F4FE2
:100C500062E070E080919004909191040E94E3071B
:100C60008091980490919904DC011396FC92EE9285
:100C7000129715961C921E9214970E948F0881E07D
:100C800090E0909387018093860172CC80918201DD
:100C900090918301A0918401B09185010196A11DDD
:100CA000B11D8093820190938301A0938401B0933E
:100CB0008501883B9B40A105B105A0F0809186018C
:100CC00090918701892B71F41092950410929404ED
:100CD000109282011092830110928401109285017A
:100CE00001C080812A960FB6F894DEBF0FBECDBF3B
:100CF000DF91CF91FF91EF91BF91AF919F918F9134
:100D00007F916F915F914F913F912F911F910F9123
:100D1000FF90EF90DF90CF90BF90AF900F900FBEFD
:100D20000F901F901895FC01538D448D252F30E0B6
:100D3000842F90E0821B930B541710F0CF960895E8
:100D400001970895FC01918D828D981761F0828D35
:100D5000DF01A80FB11D5D968C91928D9F5F9F73EF
:100D6000928F90E008958FEF9FEF0895FC01918D91
:100D7000828D981731F0828DE80FF11D858D90E0FE
:100D800008958FEF9FEF0895FC01918D228D892F9B
:100D900090E0805C9F4F821B91098F739927089583
:100DA00080E090E0892B49F080E090E0892B29F0E9
:100DB0000E94000081110C9400000895EF92FF92B0
:100DC0000F931F93CF93DF93EC0181E0888F9B8D6E
:100DD0008C8D981305C0E889F989808185FD26C02E
:100DE000F62E0B8D10E00F5F1F4F0F731127E02EB3
:100DF0008C8DE8120CC00FB607FCFACFE889F98990
:100E0000808185FFF5CFCE010E946D08F1CF8B8DDB
:100E1000FE01E80FF11DE35AFF4FF0829FB7F894EF
:100E20000B8FEA89FB89808180620AC09FB7F894A2
:100E3000EE89FF896083E889F98980818370806405
:100E400080839FBF81E090E0DF91CF911F910F9150
:100E5000FF90EF900895CF93DF93EC01888D882366
:100E6000C9F0EA89FB89808185FD05C0A889B98917
:100E70008C9186FD0FC00FB607FCF5CF808185FFF2
:100E8000F2CFA889B9898C9185FFEDCFCE010E9460
:100E90006D08E7CFDF91CF9108950E9404118091F2
:100EA00078029091790220917A0230917B02821728
:100EB00093073CF0821B930B6AE070E00E94EA10FB
:100EC0000895821B930B0A960895CF93DF93FB013D
:100ED000DC011A96CD91DC911B9712968D919C9115
:100EE00013978130910569F488819981918380837A
:100EF0008A8190E0938382838B8190E095838483C1
:100F00005DC08230910529F4888190E091838083CF
:100F100055C08430910509F04DC0888190E09183DF
:100F20008083898190E093838283DE0113968A8196
:100F3000A80FB11D4D915D916D917C9113974483E4
:100F400055836683778314964D915D916D917C9165
:100F50001797408751876287738718964D915D91E7
:100F60006D917C911B9744875587668777871C9680
:100F70004D915D916D917C911F97408B518B628B50
:100F8000738B50968C915097848B51968C9151977E
:100F9000858B52968C915297868B53968C91539752
:100FA000878B54968C915497808F55968C91818F16
:100FB000128E04C0069711F48881808380E090E04F
:100FC000DF91CF910895FC01892B59F070937D0238
:100FD00060937C0250937F0240937E028CE792E004
:100FE0000994089580E180938100E0916403F09179
:100FF00065030994CF92DF92EF92FF920F931F93B4
:10100000CF93DF936C017A018B01C0E0D0E0CE1565
:10101000DF0581F0D8016D918D01D601ED91FC9134
:101020000190F081E02DC6010995892B11F02196E0
:10103000EECF7E01C701DF91CF911F910F91FF90FD
:10104000EF90DF90CF900895E4EBF1E09491E0EA27
:10105000F1E02491ECE8F1E0E491EE2309F43CC0E6
:10106000992339F1933091F038F49130A9F092300E
:1010700001F594B59F7D12C0973091F09830A1F0A2
:101080009430B9F4909180009F7D03C090918000CE
:101090009F77909380000DC094B59F7794BD09C051
:1010A0009091B0009F7703C09091B0009F7D909386
:1010B000B000F0E0EE0FFF1FE058FE4FA591B49195
:1010C0009FB7F894811104C08C912095282302C009
:1010D000EC912E2B2C939FBF0895FC01848DDF0192
:1010E000A80FB11DA35ABF4F2C91848D90E001969B
:1010F0008F739927848FA689B7892C93A089B1898A
:101100008C91837080648C93938D848D981306C02A
:101110000288F389E02D80818F7D80830895AF92CE
:10112000BF92CF92DF92EF92FF920F931F93CF93D4
:10113000DF93CDB7DEB727970FB6F894DEBF0FBEAB
:10114000CDBF5C01A0919804B091990418960D91BF
:101150001C91199780919A04D8018C93F501828192
:1011600011968C931197848112968C931297858196
:1011700013968C93A481B581109799F1809198046E
:1011800090919904A816B90621F198012C5F3F4F60
:1011900080E090E0DC01AC01BD014C5F5F4F6F4F20
:1011A0007F4FF501C480D580E12CF12C8C159D0575
:1011B000AE05BF05D0F4F50142855385480F591F90
:1011C000FA014081F90141939F010196A11DB11DD2
:1011D000E2CFAD0160E070E04C5F5F4F6F4F7F4F3B
:1011E00004C044E050E060E070E06A017B01FFEF82
:1011F000CF1ADF0AEF0AFF0AD801A40FB51FF501C5
:1012000084819581049699F0800F911F98015FEF7A
:10121000F90141919F01E52FE427F0E0E058FF4FED
:10122000549128173907A0F3E52FE09501C0E0E0BD
:10123000EC9387EA8F83CE0107969A83898381E0B6
:1012400090E0A0E0B0E08B839C83AD83BE83E0910F
:101250008E04F0918F04CE01019609951A830983BB
:10126000CB82DC82ED82FE82E0918E04F0918F04CD
:10127000CE010196099527960FB6F894DEBF0FBEF2
:10128000CDBFDF91CF911F910F91FF90EF90DF9035
:10129000CF90BF90AF9008951F920F920FB60F920C
:1012A00011242F933F934F935F936F937F938F936B
:1012B0009F93AF93BF93EF93FF93E0918C04F091D2
:1012C0008D040995FF91EF91BF91AF919F918F91FF
:1012D0007F916F915F914F913F912F910F900FBE32
:1012E0000F901F901895CF92DF92EF92FF921F936D
:1012F000CF93DF936091660370916703E0E2F4E0BF
:1013000020E030E0CFEFDFEF1EE24081518157FD5A
:1013100035C04817590721F08F3F4FEF940771F5FB
:10132000A8E6B3E040E050E046175707C1F0CD9083
:10133000DC9011979E96E280F380CE14DF0461F476
:10134000149FD001159FB00D1124A859BC4F9D9634
:101350001C921E929C9703C04F5F5F4FE5CFD183D5
:10136000C08397FD0BC08BE1829FF001839FF00D3E
:101370001124E05EFB4F8281938108C02F5F3F4FB5
:101380007B962430310509F68FEF9FEFDF91CF91E7
:101390001F91FF90EF90DF90CF900895CF93DF9350
:1013A00090E0FC01E256FE4F2491FC01E657FE4F0F
:1013B0008491882361F190E0880F991FFC01EA581D
:1013C000FF4FC591D491FC01E058FE4FA591B49117
:1013D000611109C09FB7F894888120958223888382
:1013E000EC912E230BC0623061F49FB7F894888192
:1013F000322F309583238883EC912E2B2C939FBF23
:1014000006C08FB7F894E8812E2B28838FBFDF9119
:10141000CF9108951F920F920FB60F9211242F9320
:101420003F938F939F93AF93BF938091A10490912B
:10143000A204A091A304B091A4043091A00423E0DD
:10144000230F2D3720F40196A11DB11D05C026E8FC
:10145000230F0296A11DB11D2093A0048093A10427
:101460009093A204A093A304B093A40480919C043D
:1014700090919D04A0919E04B0919F040196A11D9E
:10148000B11D80939C0490939D04A0939E04B093FF
:101490009F04BF91AF919F918F913F912F910F909A
:1014A0000FBE0F901F901895EDE8F1E013821282A5
:1014B00088EE93E0A0E0B0E084839583A683B783B1
:1014C00085EC90E09587848784EC90E09787868709
:1014D00080EC90E0918B808B81EC90E0938B828B01
:1014E00082EC90E0958B848B86EC90E0978B868BDA
:1014F000118E128E138E148E89E091E09183808379
:101500000895CF93DF93CDB7DEB7A4970FB6F894C5
:10151000DEBF0FBECDBF789484B5826084BD84B534
:10152000816084BD85B5826085BD85B5816085BDDE
:1015300080916E00816080936E0010928100809196
:10154000810082608093810080918100816080931E
:101550008100809180008160809380008091B10043
:1015600084608093B1008091B00081608093B0006E
:1015700080917A00846080937A0080917A00826002
:1015800080937A0080917A00816080937A008091C4
:101590007A00806880937A001092C10061E080E058
:1015A0000E94CE0961E083E00E94CE0961E081E003
:1015B0000E94CE0961E084E00E94CE0961E082E0F1
:1015C0000E94CE0961E085E00E94CE0961E089E0D9
:1015D0000E94CE0961E08AE00E94CE0961E08BE0C2
:1015E0000E94CE0961E086E00E94CE0961E087E0BA
:1015F0000E94CE0961E088E00E94CE0960E08CE0A4
:101600000E94CE0960E08DE00E94CE0961E082E098
:101610000E94CE0980E00E94240890E040E050E063
:10162000892F806480937C0080917A00806480930D
:101630007A0080917A0086FDFCCF2091780080911D
:10164000790030E0382B422753279F5F953041F7D0
:10165000CA010E94550EE0919D01F0919E0182E029
:101660008083E0919901F0919A011082E0919B01B1
:10167000F0919C0180E180831092A501E091A1018D
:10168000F091A20186E08083E0919F01F091A0019A
:10169000808180618083E0919F01F091A001808131
:1016A00088608083E0919F01F091A0018081806833
:1016B0008083E0919F01F091A00180818F7D8083E4
:1016C0008DE391E090938F0480938E0482E191E00A
:1016D0009093910480939004809198029091990244
:1016E00082309105D4F49C012F5F3F4F30939902D3
:1016F000209398022CE0289FF001299FF00D1124DF
:10170000E058FD4F8AE193E0918780878EE193E076
:10171000938782879E2F8F2F02C090E080E0909366
:101720009604809397048091980290919902823058
:101730009105D4F49C012F5F3F4F30939902209381
:1017400098022CE0289FF001299FF00D1124E05809
:10175000FD4F8AE992E0918780878EE992E0938736
:1017600082879E2F8F2F02C090E080E09093980494
:101770008093990480E1809381001092800094E02E
:1017800090938C0122E13AE730938B0120938A01F8
:10179000309387002093860094E19093810022EF9C
:1017A00037E030938D0420938C0491E090936F0088
:1017B0008093810086E491E09093650380936403B5
:1017C0008091620390916303892B39F587E191E061
:1017D00090932C0280932B0288E480932A0280E667
:1017E00091E090932F0280932E0288E080932D0247
:1017F0008AE593E09093330280933202109235028F
:101800001092340281E090E090936303809362032E
:101810007AE2C72E72E0D72E02C0C12CD12C809163
:101820006603909167038430910508F054C02EE25E
:10183000289F7001299FF00C1124F701E859FC4FF3
:101840009183808323E030E0338322832D813E81A6
:10185000318F208F128E138E148E158E40E050E043
:1018600060E87FE3468F578F60A371A343E050E0A9
:1018700060E070E046A357A360A771A721E030E0C5
:1018800033A722A709E611E020E030E0D8016D91EE
:101890008D01662369F0A9014E0D5F1D48595C4F0B
:1018A000DA0117966C932F5F3F4F2031310571F7A6
:1018B0003EE2389FA001399F500D112448595C4FDA
:1018C000DA0116962C930196909367038093660332
:1018D0005E2F4F2F02C050E040E0F60182859385D5
:1018E0009C01220F331F0084F185E02DE20FF31FCE
:1018F000508341830196D6011B969C938E931A9731
:101900008CE391E09093370280933602E09190044B
:10191000F0919104F8A3EF8F88E6282E83E0382E0B
:101920001A8E198E8091660390916703A98DBA8DE6
:10193000A817B90708F065C1D1019C960D911C91BB
:101940009D970115110509F453C112968D919C9133
:101950001397009709F43FC0039709F049C15896BF
:10196000ED91FC915997608171818281938120E092
:1019700030E0A9010E94F30F18163CF5F1018481B3
:101980009581892B09F034C121E030E0358324832F
:10199000D80154968C91549781FF07C01C968D9165
:1019A0009D910D90BC91A02D84C080FFE7C0D8010F
:1019B00014962D913D914D915C91179760E070E0E8
:1019C00080E89FE30E94C30ED4C0D10115961C92FB
:1019D0001E9214970DC1D1015896ED91FC91599723
:1019E00040805180628073805E968D909D90AD9016
:1019F000BC9091975A968D919D910D90BC91A02D80
:101A00008B8F9C8FAD8FBE8F9C01AD01C501B40142
:101A10000E94C40E6B017C012AE037ED43E25CE3D7
:101A20000E94F80F6D8B7E8B8F8B988FA301920194
:101A3000F10162A173A184A195A10E94C30E9B0133
:101A4000AC015F776D897E898F89988D0E94F30F35
:101A500018160CF4CDC0D10192964D925D926D9204
:101A60007C929597D80154968D919D910D90BC9143
:101A7000A02D8D8B9E8BAF8BB88F83709927AA2753
:101A8000BB27892B8A2B8B2B29F120E030E040E00B
:101A90005FE3C701B6010E94F80F9B01AC01C301CF
:101AA000B2010E94F30F87FD0AC080E090E0A0E839
:101AB000BFE3F80184839583A683B7835FC0FD8964
:101AC000F0FF96C0D80114961D921D921D921C9293
:101AD000179754C0F801C084D184E284F384A7012D
:101AE000960164857585868597850E94C30E69A3D6
:101AF0007AA38BA39CA32B8D3C8D4D8D5E8DC50150
:101B0000B4010E94C30E9B01AC0169A17AA18BA113
:101B10009CA10E94300F4B015C019B01AC016B8DBD
:101B20007C8D8D8D9E8D0E94F80F9B01AC01C701AD
:101B3000B6010E94C30E6B017C01A5019401C30193
:101B4000B2010E94F80F9B01AC01C701B6010E94CF
:101B5000C40EFD89F4FF08C0D80114966D937D93DF
:101B60008D939C9317970AC0BD89B5FF41C00E9411
:101B70006510F801648375838683978320917802CA
:101B800030917902C90101966AE070E00E94EA1082
:101B900040917A0250917B0284179507E1F0D801B9
:101BA00014964D915D916D917C911797B6E0B29F1F
:101BB000F001B39FF00D1124E45CFD4FD8012D918D
:101BC0003C91318320834283538364837583909354
:101BD000790280937802EF8DF8A1309749F023E0E5
:101BE00030E03A8329831C830B83CE01019609954B
:101BF000898D9A8D01969A8F898F9EE2290E311CCC
:101C000091CE0E94D00682CE8F929F92AF92BF92C9
:101C1000CF92DF92EF92FF92CF93DF93EC01688136
:101C200079818A819B81611571058105910521F476
:101C300064E279ED8BE597E02DE133EF41E050E090
:101C40000E94600E49015A019B01AC01A7EAB1E470
:101C50000E947F0E6B017C01ACEEB4EFA5019401F4
:101C60000E948D0EDC01CB018C0D9D1DAE1DBF1D94
:101C7000B7FF03C00197A109B04888839983AA835D
:101C8000BB839F77DF91CF91FF90EF90DF90CF9054
:101C9000BF90AF909F908F9008950E94040E08957A
:101CA00081E091E00E94040E0895A0E0B0E08093EE
:101CB000010190930201A0930301B09304010895E0
:101CC000052E97FB1EF400940E94770E57FD07D057
:101CD0000E94920E07FC03D04EF40C94770E5095A0
:101CE0004095309521953F4F4F4F5F4F0895909508
:101CF0008095709561957F4F8F4F9F4F08950E94FB
:101D0000B40EA59F900DB49F900DA49F800D911DC2
:101D100011240895B7FF0C947F0E0E947F0E821B42
:101D2000930B0895A1E21A2EAA1BBB1BFD010DC047
:101D3000AA1FBB1FEE1FFF1FA217B307E407F5077B
:101D400020F0A21BB30BE40BF50B661F771F881F57
:101D5000991F1A9469F760957095809590959B01ED
:101D6000AC01BD01CF010895A29FB001B39FC00196
:101D7000A39F700D811D1124911DB29F700D811DB7
:101D80001124911D08955058BB27AA270E94DB0EED
:101D90000C94B90F0E94AB0F38F00E94B20F20F0E4
:101DA00039F49F3F19F426F40C94A80F0EF4E09533
:101DB000E7FB0C94A20FE92F0E94CA0F58F3BA1741
:101DC000620773078407950720F079F4A6F50C9451
:101DD000EC0F0EF4E0950B2EBA2FA02D0B01B901DC
:101DE00090010C01CA01A0011124FF27591B99F091
:101DF000593F50F4503E68F11A16F040A22F232F9D
:101E0000342F4427585FF3CF469537952795A795EC
:101E1000F0405395C9F77EF41F16BA0B620B730B93
:101E2000840BBAF09150A1F0FF0FBB1F661F771F04
:101E3000881FC2F70EC0BA0F621F731F841F48F4B9
:101E4000879577956795B795F7959E3F08F0B0CF42
:101E50009395880F08F09927EE0F97958795089529
:101E60000E94440F0C94B90F0E94B20F58F00E94C8
:101E7000AB0F40F029F45F3F29F00C94A20F5111F1
:101E80000C94ED0F0C94A80F0E94CA0F68F39923CD
:101E9000B1F3552391F3951B550BBB27AA27621766
:101EA0007307840738F09F5F5F4F220F331F441F73
:101EB000AA1FA9F335D00E2E3AF0E0E832D09150A7
:101EC0005040E695001CCAF72BD0FE2F29D0660F94
:101ED000771F881FBB1F261737074807AB07B0E8D7
:101EE00009F0BB0B802DBF01FF2793585F4F3AF0DD
:101EF0009E3F510578F00C94A20F0C94ED0F5F3FBC
:101F0000E4F3983ED4F3869577956795B795F79562
:101F10009F5FC9F7880F911D9695879597F908954A
:101F2000E1E0660F771F881FBB1F621773078407E6
:101F3000BA0720F0621B730B840BBA0BEE1F88F7F5
:101F4000E095089597F99F6780E870E060E0089554
:101F50009FEF80EC089500240A94161617061806C1
:101F60000906089500240A9412161306140605069D
:101F70000895092E0394000C11F4882352F0BB0F2E
:101F800040F4BF2B11F460FF04C06F5F7F4F8F4F91
:101F90009F4F089557FD9058440F551F59F05F3FCC
:101FA00071F04795880F97FB991F61F09F3F79F07B
:101FB00087950895121613061406551FF2CF4695FD
:101FC000F1DF08C0161617061806991FF1CF86957F
:101FD0007105610508940895E894BB276627772763
:101FE000CB0197F908950E94891008F48FEF0895A6
:101FF0000E940B100C94B90F0E94AB0F38F00E9496
:10200000B20F20F0952311F00C94A20F0C94A80F9E
:1020100011240C94ED0F0E94CA0F70F3959FC1F329
:10202000950F50E0551F629FF001729FBB27F00D86
:10203000B11D639FAA27F00DB11DAA1F649F6627DB
:10204000B00DA11D661F829F2227B00DA11D621F2A
:10205000739FB00DA11D621F839FA00D611D221FE4
:10206000749F3327A00D611D231F849F600D211DC8
:10207000822F762F6A2F11249F5750409AF0F1F04B
:1020800088234AF0EE0FFF1FBB1F661F771F881FB4
:1020900091505040A9F79E3F510580F00C94A20F3B
:1020A0000C94ED0F5F3FE4F3983ED4F3869577955B
:1020B0006795B795F795E7959F5FC1F7FE2B880F5A
:1020C000911D9695879597F908950E94D20FE8F093
:1020D0009E37E8F09639B8F49E3848F4672F782F89
:1020E0008827985FF9CF8695779567959395953969
:1020F000D0F3B62FB1706B0F711D811D20F4879541
:102100007795679593950C94AD100C94C8100C942A
:10211000ED0F990F0008550FAA0BE0E8FEEF161619
:102120001706E807F907C0F012161306E407F507CB
:1021300098F0621B730B840B950B39F40A2661F03F
:10214000232B242B252B21F408950A2609F4A140E2
:10215000A6958FEF811D811D0895882371F4772343
:1021600021F09850872B762F07C0662311F499270A
:102170000DC09051862B70E060E02AF09A95660FB2
:10218000771F881FDAF7880F9695879597F9089536
:102190009F3F31F0915020F4879577956795B795DB
:1021A000880F911D9695879597F90895AA1BBB1BDB
:1021B00051E107C0AA1FBB1FA617B70710F0A61B47
:1021C000B70B881F991F5A95A9F780959095BC0168
:1021D000CD01089597FB072E16F4009407D077FDE4
:1021E00009D00E94D61007FC05D03EF49095819549
:1021F0009F4F0895709561957F4F0895EE0FFF1FD3
:102200000590F491E02D099481E090E0F8940C940D
:102210001211FB01DC0102C001900D9241505040AF
:08222000D8F70895F894FFCFF0
:102228000101000000000000000302FA0793062BDA
:1022380007C406A206B60668747470733A2F2F672F
:1022480069746875622E636F6D2F6D6F646465764F
:10225800696365732F63632D61726475696E6F2D91
:102268006C69622F747265652F6D61737465722F66
:102278006578616D706C65732F427574746F6E004C
:10228800466972656861776B0050726573734D6556
:02229800000044
:00000001FF
